:020000040000FA
:0600000094EF1FF0120056
:0600080004EF08F01200F5
:060018000CEF08F01200DD
:0610000094EF1FF0120046
:021006001200D6
:0610080016EF08F01200D3
:061018001DEF08F01200BC
:02101E000100CF
:0C102000443F0000A00000003D00000064
:04102C00DACFE4FF34
:10103000E652E552E5CFDAFF1100D8CFE4FFE0CF6A
:10104000E4FFE46EDACFE4FFE652E552E5CFDAFFE3
:10105000E550E5CFE0FFE5CFD8FF100004D8B7ECAE
:1010600013F067D9FCD70F0EC11202D827EF13F087
:10107000D9CFE6FFE1CFD9FF060EE126010EF36ED0
:10108000040EF3CFDBFFF00E936E94688B687E6ADC
:101090007F6AF18E0101506B516B526B536B546B35
:1010A000556B566B576B0001A46BA56BA66BA76BBA
:1010B00002016C6B6CC26BF26CC26AF26CC269F2B8
:1010C0006F6B6FC26EF26FC26DF20201686B68C225
:1010D00067F268C266F268C265F268C264F268C20A
:1010E00063F268C262F268C261F20101436B43C1FC
:1010F00042F143C141F143C140F14F6B4FC14EF149
:101100004FC14DF14FC14CF14FC14BF14FC14AF1AD
:101110004FC149F14FC148F1446B456B800E466F9A
:10112000476FDE6ADD6ADECF14F0DDCF15F0D890B0
:10113000155004E60C0E145C000E15586DE2020EFC
:10114000DB6A030EDB6A020EDBCF14F0030EDBCF8B
:1011500015F0D890155004E6030E145C000E1558D7
:1011600056E2DECF16F0DDCF17F0030E1702F3CFF5
:1011700017F01602F3CF16F0F4501726B60E162607
:10118000000E1722020EDB501624146E030EDB50E5
:101190001720156E14C0E6FFE66E030EE66E050E10
:1011A000E66EDECF1CF0DDCF1DF0030E1D02F3CF87
:1011B0001DF01C02F3CF1CF0F4501D26020EDB5074
:1011C000F3241A6E030EDB501D201B6E050E086EF5
:1011D000096A1AC00DF01BC00EF0CAEC1EF006C062
:1011E00018F007C019F006C0E6FF07C0E6FF7EEC66
:1011F0001CF01E6E060EE15E1E50E76E050EE7CF78
:10120000DBFF020EDB2A030E9EE3DB2A9CD7DF2ADC
:10121000010E89E3DB2A87D70001B65101E17FD0B7
:10122000B60501E17CD0020EB65D01E178D0DE6A40
:10123000DD6ADECF14F0DDCF15F0D890155004E64E
:101240000C0E145C000E15586AE2020EDB6A030EE7
:10125000DB6A020EDBCF14F0030EDBCF15F0D89063
:10126000155004E6030E145C000E155853E2DECF51
:1012700014F0DDCF15F0030E1502F3CF15F01402B4
:10128000F3CF14F0F4501526B60E1426000E1522D6
:10129000020EDB501424E96E030EDB501520EA6EBB
:1012A000EF6A050EE66EE66ADECF18F0DDCF19F0C4
:1012B000030E1902F3CF19F01802F3CF18F0F4500F
:1012C0001926020EDB50F324166E030EDB50192094
:1012D000176E050E086E096A16C00DF017C00EF0E5
:1012E000CAEC1EF006C014F007C015F006C0E6FFF9
:1012F00007C0E6FF04EC1DF0E552E552E552E55269
:10130000E76E050EE7CFDBFF020EDB2A030EA1E33B
:10131000DB2A9FD7DF2A010E8CE3DB2A8AD7060E51
:10132000E15C02E2E16AE552E16EE552E7CFD9FF06
:101330001200D9CFE6FFE1CFD9FF0A0EE126200E39
:101340000001E76E6019E8AE02D0E73402D0E75042
:10135000605D03E36450020B02E09CEF12F08150E9
:10136000200B200A01E0010E800DF3CF1AF081500E
:10137000400B400A01E0010E400DF3CF19F08150FF
:10138000800B800A01E0010E200DF3CF18F082508F
:10139000800B800A01E0010E100DF3CF17F0825090
:1013A000400B400A01E0010E080DF3CF16F0825009
:1013B000080B080A01E0010E040DF3CF15F082506E
:1013C000100B100A01E0010EE824146E8250200B6D
:1013D000200A01E0010E1410151016101710181035
:1013E00019101A100001A86F8250010B010A080D94
:1013F000F3CF16F08250020B020A01E0010E040D39
:10140000F3CF15F08250040B040A01E0010EE8242A
:10141000146E8150100B100A01E0010E141015100B
:1014200016100001A96F020EF36E040EF3CFDBFF5E
:10143000050EDB6A0101586B0101596B01015A6B02
:1014400001015B6B01015C6B01015D6B01015E6B76
:1014500001015F6B0101606B0101616BDE6ADD6A96
:10146000DECF14F0DDCF15F0D890155004E60C0E49
:10147000145C000E155801E375D3DECF14F0DDCFF8
:1014800015F0D890155004E6080E145C000E15589F
:1014900014E2010EDF5206E0DFCFF3FFE846FE0B59
:1014A000F306FCE10001A81502E0010E01D0000ED8
:1014B000E76E060EE7CFDBFF1BD0DECF14F0DDCFEB
:1014C00015F0080E145E000E155A010E14C0E7FF49
:1014D000E75204E0E846FE0BE706FCE10001A9152F
:1014E00002E0010E01D0000EE76E060EE7CFDBFF33
:1014F000DECFE9FFDDCFEAFF030EEA02F3CFEAFF1A
:10150000030EE902F3CFE9FFF450EA26B60EE9260E
:10151000000EEA22EF50020A01E177D2030A01E14C
:1015200020D2010A01E018D3060EDB0401E018D234
:10153000DECFE9FFDDCFEAFF030EEA02F3CFEAFFD9
:10154000030EE902F3CFE9FFF450EA26B60EE926CE
:10155000000EEA22010EE926000EEA22EF5003E116
:1015600001014081FAD1DECFE9FFDDCFEAFF030EB2
:10157000EA02F3CFEAFF030EE902F3CFE9FFF450EA
:10158000EA26B60EE926000EEA22010EE926000E32
:10159000EA22EF0403E101014083DFD1DECFE9FF5E
:1015A000DDCFEAFF030EEA02F3CFEAFF030EE90202
:1015B000F3CFE9FFF450EA26B60EE926000EEA2240
:1015C000010EE926000EEA22EF50020803E10101B4
:1015D0004085C3D1DECFE9FFDDCFEAFF030EEA028B
:1015E000F3CFEAFF030EE902F3CFE9FFF450EA2656
:1015F000B60EE926000EEA22010EE926000EEA22C6
:10160000EF5003081FE10101010E586F01015E5107
:1016100018E1DECFE9FFDDCFEAFF030EEA02F3CFE8
:10162000EAFF030EE902F3CFE9FFF450EA26B60E13
:10163000E926000EEA22020EE926000EEA22EFCF8A
:101640005EF18BD1DECFE9FFDDCFEAFF030EEA02C8
:10165000F3CFEAFF030EE902F3CFE9FFF450EA26E5
:10166000B60EE926000EEA22010EE926000EEA2255
:10167000EF5004081FE10101010E596F01015F5194
:1016800018E1DECFE9FFDDCFEAFF030EEA02F3CF78
:10169000EAFF030EE902F3CFE9FFF450EA26B60EA3
:1016A000E926000EEA22020EE926000EEA22EFCF1A
:1016B0005FF153D1DECFE9FFDDCFEAFF030EEA028F
:1016C000F3CFEAFF030EE902F3CFE9FFF450EA2675
:1016D000B60EE926000EEA22010EE926000EEA22E5
:1016E000EF5005081FE10101010E5A6F0101605121
:1016F00018E1DECFE9FFDDCFEAFF030EEA02F3CF08
:10170000EAFF030EE902F3CFE9FFF450EA26B60E32
:10171000E926000EEA22020EE926000EEA22EFCFA9
:1017200060F11BD1DECFE9FFDDCFEAFF030EEA0255
:10173000F3CFEAFF030EE902F3CFE9FFF450EA2604
:10174000B60EE926000EEA22010EE926000EEA2274
:10175000EF5006081FE10101010E5B6F01016151AD
:1017600018E1DECFE9FFDDCFEAFF030EEA02F3CF97
:10177000EAFF030EE902F3CFE9FFF450EA26B60EC2
:10178000E926000EEA22020EE926000EEA22EFCF39
:1017900061F1E3D0DECFE9FFDDCFEAFF030EEA021D
:1017A000F3CFEAFF030EE902F3CFE9FFF450EA2694
:1017B000B60EE926000EEA22010EE926000EEA2204
:1017C000EF5007081CE10101010E5C6FDECFE9FF5D
:1017D000DDCFEAFF030EEA02F3CFEAFF030EE902D0
:1017E000F3CFE9FFF450EA26B60EE926000EEA220E
:1017F000020EE926000EEA22EFCF62F1AED0DECF74
:10180000E9FFDDCFEAFF030EEA02F3CFEAFF030EA2
:10181000E902F3CFE9FFF450EA26B60EE926000EFE
:10182000EA22010EE926000EEA22EF5008081CE128
:101830000101010E5D6FDECFE9FFDDCFEAFF030E90
:10184000EA02F3CFEAFF030EE902F3CFE9FFF45017
:10185000EA26B60EE926000EEA22020EE926000E5E
:10186000EA22EFCF63F179D0DECFE9FFDDCFEAFFE7
:10187000030EEA02F3CFEAFF030EE902F3CFE9FF1A
:10188000F450EA26B60EE926000EEA22010EE926F9
:10189000000EEA22EF50090860E1DECFE9FFDDCF5C
:1018A000EAFF030EEA02F3CFEAFF030EE902F3CFE9
:1018B000E9FFF450EA26B60EE926000EEA22020EEF
:1018C000E926000EEA22EFCF5EF1DECFE9FFDDCFA1
:1018D000EAFF030EEA02F3CFEAFF030EE902F3CFB9
:1018E000E9FFF450EA26B60EE926000EEA22020EBF
:1018F000E926000EEA22EFCF5FF1DECFE9FFDDCF70
:10190000EAFF030EEA02F3CFEAFF030EE902F3CF88
:10191000E9FFF450EA26B60EE926000EEA22020E8E
:10192000E926000EEA22EFCF60F1DECFE9FFDDCF3E
:10193000EAFF030EEA02F3CFEAFF030EE902F3CF58
:10194000E9FFF450EA26B60EE926000EEA22020E5E
:10195000E926000EEA22EFCF61F10001050EDB6FF0
:10196000FCD0060EDB0450E1D950040FE96EDACF4B
:10197000EAFF080EEE1801E1ED5043E0DECFE9FF8B
:10198000DDCFEAFF030EEA02F3CFEAFF030EE9021E
:10199000F3CFE9FFF450EA26B60EE926000EEA225C
:1019A000020EE926000EEA22EF5001014813DECFB5
:1019B000E9FFDDCFEAFF030EEA02F3CFEAFF030EF1
:1019C000E902F3CFE9FFF450EA26B60EE926000E4D
:1019D000EA22010EE926000EEA22EF50E66E040E1E
:1019E000DBCFE9FF050EDBCFEAFF480EE926010E4B
:1019F000EA22E552E750EF6E040EDB2A050E01E302
:101A0000DB2A0001050EDC6FA8D0060EDB0401E026
:101A1000A2D0DECFE9FFDDCFEAFF030EEA02F3CF6B
:101A2000EAFF030EE902F3CFE9FFF450EA26B60E0F
:101A3000E926000EEA22010EE926000EEA22EF5006
:101A4000010B02E00101476BDECFE9FFDDCFEAFFCA
:101A5000030EEA02F3CFEAFF030EE902F3CFE9FF38
:101A6000F450EA26B60EE926000EEA22010EE92617
:101A7000000EEA22EF50020B02E001014769DECFBF
:101A8000E9FFDDCFEAFF030EEA02F3CFEAFF030E20
:101A9000E902F3CFE9FFF450EA26B60EE926000E7C
:101AA000EA22010EE926000EEA22EF50040B02E0C2
:101AB0000101466BDECFE9FFDDCFEAFF030EEA024C
:101AC000F3CFEAFF030EE902F3CFE9FFF450EA2671
:101AD000B60EE926000EEA22010EE926000EEA22E1
:101AE000EF50080B02E001014669DECFE9FFDDCFD0
:101AF000EAFF030EEA02F3CFEAFF030EE902F3CF97
:101B0000E9FFF450EA26B60EE926000EEA22020E9C
:101B1000E926000EEA22EF5001014413DECFE9FF6F
:101B2000DDCFEAFF030EEA02F3CFEAFF030EE9027C
:101B3000F3CFE9FFF450EA26B60EE926000EEA22BA
:101B4000010EE926000EEA22EF380F0B01014513C2
:101B50000001050EDA6F01D000D0DF2A010E01E38B
:101B6000DB2A7ED401015051511102E1000E08D050
:101B700050C1E9FF51C1EAFFEF50800B01E0010EB7
:101B8000000901E0A8D1010158053FE101015E51C2
:101B9000146E156A14500001AA2715500001AB23DA
:101BA0000001AB3504E2AA513208000EAB552CE21D
:101BB000AAC014F0ABC015F0320E0D6E0E6A14C040
:101BC00008F015C009F0A4EC1EF008C014F009C01C
:101BD00015F00868096814C00DF015C00EF0CAECC5
:101BE0001EF006C042F1AAC0AAF0ABC0ABF0320EA4
:101BF0000D6E0E6AAAC008F0ABC009F0A4EC1EF08E
:101C000004C0AAF005C0ABF003D00001AA6BAB6B17
:101C10000101590533E101015F51146E156A145039
:101C20000001AC2715500001AD230001AD3504E2E1
:101C3000AC513208000EAD5520E2320E146E156A1A
:101C4000ACC008F0ADC009F014C00DF015C00EF026
:101C5000A4EC1EF008C042F1ACC0ACF0ADC0ADF0D9
:101C6000320E0D6E0E6AACC008F0ADC009F0A4ECE7
:101C70001EF004C0ACF005C0ADF003D00001AC6BA9
:101C8000AD6B01015A053FE101016051146E156A07
:101C900014500001AE2715500001AF230001AF35ED
:101CA00004E2AE513208000EAF552CE2AEC014F083
:101CB000AFC015F0320E0D6E0E6A14C008F015C0DC
:101CC00009F0A4EC1EF008C014F009C015F0086873
:101CD000096814C00DF015C00EF0CAEC1EF006C065
:101CE00041F1AEC0AEF0AFC0AFF0320E0D6E0E6A75
:101CF000AEC008F0AFC009F0A4EC1EF004C0AEF016
:101D000005C0AFF003D00001AE6BAF6B01015B0506
:101D100033E101016151146E156A14500001B027BE
:101D200015500001B1230001B13504E2B051320871
:101D3000000EB15520E2320E146E156AB0C008F0E4
:101D4000B1C009F014C00DF015C00EF0A4EC1EF0E7
:101D500008C041F1B0C0B0F0B1C0B1F0320E0D6EAC
:101D60000E6AB0C008F0B1C009F0A4EC1EF004C0C7
:101D7000B0F005C0B1F003D00001B06BB16B010150
:101D80005C0535E101016251146E156A14500001C1
:101D9000B22715500001B3230001B33504E2B2515C
:101DA000E808030EB35522E2E80E146E030E156E1A
:101DB000B2C008F0B3C009F014C00DF015C00EF0A9
:101DC000A4EC1EF008C043F1B2C0B2F0B3C0B3F04F
:101DD000E80E0D6E030E0E6EB2C008F0B3C009F02F
:101DE000A4EC1EF004C0B2F005C0B3F003D00001B3
:101DF000B26BB36B01015D0541E101016351146EEA
:101E0000156A14500001B42715500001B5230001D4
:101E1000B53504E2B451E808030EB5552EE2B4C05E
:101E200014F0B5C015F0E80E0D6E030E0E6E14C062
:101E300008F015C009F0A4EC1EF008C014F009C0A9
:101E400015F00868096814C00DF015C00EF0CAEC52
:101E50001EF006C043F1B4C0B4F0B5C0B5F0E80E52
:101E60000D6E030E0E6EB4C008F0B5C009F0A4EC00
:101E70001EF004C0B4F005C0B5F003D00001B46B8F
:101E8000B56B40C16DF241C16EF242C16FF243C108
:101E900070F20101406B0101416B0101426B0101D4
:101EA000436B0001DB51000816E2040EE66E6D0E76
:101EB000E66E020EE66E010EE66E010EE66EADEC0B
:101EC00014F0146E050EE15E1450F3CF50F1F4CF10
:101ED00051F10001DB0701015451551102E1000EDF
:101EE00008D054C1E9FF55C1EAFFEF50800B01E073
:101EF000010E00093AE148C161F249C162F24AC1EA
:101F000063F24BC164F24CC165F24DC166F24EC141
:101F100067F24FC168F201014F6B4FC14EF14FC1E3
:101F20004DF14FC14CF14FC14BF14FC14AF14FC17F
:101F300049F14FC148F10001DC51000816E2080EDA
:101F4000E66E610EE66E020EE66E010EE66E030EA2
:101F5000E66EADEC14F0146E050EE15E1450F3CF96
:101F600054F1F4CF55F10001DC070101565157112E
:101F700002E1000E08D056C1E9FF57C1EAFFEF5059
:101F8000800B01E0010E000913E1010EE66E600E08
:101F9000E66E020EE66EE66A030EE66EADEC14F037
:101FA000146E050EE15E1450F3CF56F1F4CF57F1E5
:101FB00001015251531102E1000E08D052C1E9FF54
:101FC00053C1EAFFEF50800B01E0010E00092CE144
:101FD00044C169F245C16AF246C16BF247C16CF275
:101FE0000101446B0101456B0101800E466F010147
:101FF000800E476F0001DA51000816E2040EE66E0B
:10200000690EE66E020EE66E010EE66E020EE66EDA
:10201000ADEC14F0146E050EE15E1450F3CF52F1E6
:10202000F4CF53F10001DA070001A451A51102E138
:10203000000E08D0A4C0E9FFA5C0EAFFEF50800B56
:1020400001E0010E000901E077D202017951560A40
:1020500001E1CDD1030A01E1ACD1620A01E108D16D
:10206000B60A01E1D6D0010A01E053D2050E020101
:102070009E5D01E0CDD0AA0E02019F5D01E0C8D0B7
:10208000550E0201A05D01E0C3D00A0E0201A15D60
:1020900001E0BED00F0E0201A25D01E0B9D0DE6A00
:1020A000DD6ADECF14F0DDCF15F0D890155004E6D0
:1020B0000C0E145C000E155801E3AAD0020EDB6A68
:1020C000030EDB6A020EDBCF14F0030EDBCF15F03C
:1020D000D890155004E6030E145C000E155801E369
:1020E00092D0DECF16F0DDCF17F0030E1702F3CF3C
:1020F00017F0030E1602F3CF16F0F4501726010E58
:102100001626000E1722020EDB501624E96E030E6F
:10211000DB501720EA6E790EE926020EEA22EF5014
:10212000E66EDECF14F0DDCF15F0030E1502F3CF0F
:1021300015F0030E1402F3CF14F0F4501526B60E6A
:102140001426000E1522020EDB501424E96E030E35
:10215000DB501520EA6EE552E750EF6E050EE66E95
:10216000DECF14F0DDCF15F0030E1502F3CF15F01E
:10217000030E1402F3CF14F0F4501526B60E1426F5
:10218000000E1522020EDB501424E96E030EDB5004
:102190001520EA6EEF50E66EDECF1AF0DDCF1BF0B1
:1021A000030E1B02F3CF1BF0030E1A02F3CF1AF03B
:1021B000F4501B26020EDB501A24186E030EDB505F
:1021C0001B20196E050E086E096A18C00DF019C0A3
:1021D0000EF0CAEC1EF006C016F007C017F016C0CD
:1021E000E6FF17C0E6FF04EC1DF0E552E552E552AC
:1021F000E552E76E090EE7CFDBFF020EDB2A030E86
:1022000001E3DB2A5FD7DF2A010E01E3DB2A49D78E
:1022100080D10201810EB96FA8C0BAF20F0E000181
:10222000A9150201BB6F0001A651A71102E1000E22
:1022300008D0A6C0E9FFA7C0EAFFEF50800B01E07D
:10224000010E000914E1400EE66EB90EE66E020EB4
:10225000E66E010EE66E040EE66EADEC14F0146E42
:10226000050EE15E1450F3CFA6F0F4CFA7F051D1E4
:102270000001A651A71102E1000E08D0A6C0E9FF97
:10228000A7C0EAFFEF50800B01E0010E000901E05A
:102290008FD00201370EB96FDE6ADD6ADECF14F02F
:1022A000DDCF15F0D890155004E60C0E145C000E2E
:1022B00015585AE2020EDB6A030EDB6A020EDBCF10
:1022C00014F0030EDBCF15F0D890155004E6030E82
:1022D000145C000E155843E2DECF16F0DDCF17F088
:1022E000030E1702F3CF17F0030E1602F3CF16F00A
:1022F000F4501726B60E1626000E1722020EDB50DB
:102300001624E96E030EDB501720EA6EEF50E66EDE
:10231000DECF14F0DDCF15F0030E1502F3CF15F06C
:10232000030E1402F3CF14F0F4501526020EDB5006
:102330001424E96E030EDB501520EA6E010EE92627
:10234000000EEA22B90EE926020EEA22E552E75013
:10235000EF6E020EDB2A030E01E3DB2AAFD7DF2A82
:10236000010E01E3DB2A9AD70001A651A71102E171
:10237000000E08D0A6C0E9FFA7C0EAFFEF50800B0F
:1023800001E0010E000914E1400EE66EB90EE66EA2
:10239000020EE66E010EE66E040EE66EADEC14F073
:1023A000146E050EE15E1450F3CFA6F0F4CFA7F043
:1023B000B0D06492646ADE6ADD6ADECF14F0DDCFED
:1023C00015F0D890155004E6FF0E145C000E155859
:1023D0000CE2E868E85004E0E80600D000D0FAD744
:1023E000DF2A010E01E3DB2AE8D7FF0092D00201C9
:1023F000560EB96FA00EE66E000EE66E60EC1FF092
:10240000E552E552070EF3CFDBFF146A070EDB50EF
:10241000E76E1418E8AE02D0E73402D0E750145C3F
:1024200051E2070EDBCF15F03E0EE76E1518E8AE51
:1024300002D0153403D0E750D880155443E3DE6A48
:10244000DD6ADECF14F0DDCF15F0070EDBCF16F01E
:10245000176A16BE176815501718E8AE02D0173461
:1024600004D01650145C175015581EE2DECFE9FF59
:10247000DDCFEAFFA00EE926000EEA22EF50E66E5D
:10248000DECFE9FFDDCFEAFF010EE926000EEA22EA
:10249000B90EE926020EEA22E552E750EF6EDF2A76
:1024A000010E01E3DB2ACDD7DECFE9FFDDCFEAFF66
:1024B000010EE926000EEA22B90EE926020EEA22F2
:1024C000EF6A02D00201BA6B0001A651A71102E126
:1024D000000E08D0A6C0E9FFA7C0EAFFEF50800BAE
:1024E00001E0010E000914E1400EE66EB90EE66E41
:1024F000020EE66E010EE66E040EE66EADEC14F012
:10250000146E050EE15E1450F3CFA6F0F4CFA7F0E1
:1025100000D0400EE66E790EE66E020EE66EE66ABA
:10252000040EE66EADEC14F0146E050EE15E145070
:10253000F3CFA4F0F4CFA5F00A0EE15C02E2E16A69
:10254000E552E16EE552E7CFD9FF1200120012000A
:102550001200120013EF1EF012001E0EE66E010EA6
:10256000E66E76EC14F0E552E5521E0EE66E020EB3
:10257000E66E76EC14F0E552E5521E0EE66E030EA2
:10258000E66E76EC14F0E552E5521E0EE66E040E91
:10259000E66E76EC14F0E552E55212006484010117
:1025A000080E646F070E656F6407000E655B64516B
:1025B0006511FAE164941200D9CFE6FFE1CFD9FFAB
:1025C000FD0EDBCF08F0FE0EDBCF09F0720E08180F
:1025D00001E1095033E0E868081802E17F0E0918AC
:1025E0002BE0740E081801E1095024E0750E08185C
:1025F00001E109501DE0730E081801E1095016E0D1
:10260000030E081801E109500FE0020E081801E15D
:10261000095008E0010E081801E1095001E010D04E
:102620009CDF0FD099DF0DD095DF0BD091DF09D063
:102630008DDF07D08CDF05D08CDF03D0000001D008
:0E26400000D0010E00D0E552E7CFD9FF120006
:02264E00D9CFE2
:10265000E6FFE1CFD9FFE652A0940F015F6B626AFB
:10266000536B040EE66EE66AE66A540EE66E0F0ED3
:10267000E66E46EC1FF0146E050EE15E1450160E69
:10268000616E0F019F0E5B6F7B0E606EDF6ADF5025
:10269000146E156A140E145C000E155810E2DF500B
:1026A000040DF3CFE9FFF4CFEAFF000EE926020E96
:1026B000EA22EE6AEE6AEE6AEE6ADF2AE8D7648CF6
:1026C0000F015C6B6498649C62A607D0629600015F
:1026D0007F6B846B856B866BF7D70001010E9C6F57
:1026E0009D6F9E6B9F6B8C6BDF6A050EDF5C26E235
:1026F000EA6ADF34FE0BEA36E96E710EE926000E57
:10270000EA22EE6AED6AEA6ADF34FE0BEA36E96E27
:10271000670EE926000EEA22EE6AED6ADF50EA6AE9
:10272000900FE96E000EEA22EF6ADF50EA6A950F19
:10273000E96E000EEA22EF6ADF2AD7D70001080E01
:10274000716F020E726F0F01160E536F0201500E61
:10275000026F020E036F080E016F840E006F0001FE
:10276000616B606BE552E552E7CFD9FF1200D9CF1C
:10277000E6FFE1CFD9FFE6520001605110E1646A43
:10278000606A160E616E0F019F0E5B6F7B0E606EAE
:1027900064B602D06486FCD70001010E606F60054C
:1027A00008E164BA06D0626A606A60806088020EDE
:1027B000606F6250040B06E06050040B03E062940B
:1027C0008EEC19F064B252D06250010B08E06050F8
:1027D000010B05E03CDF0001040E606F6290625067
:1027E000100B06E06050100B03E079EC19F06298D2
:1027F00062AC12D060AC0FD0010EE66EE66A000E3D
:10280000E66EE66A730EE66EE66ADCEC12F0146EB3
:10281000060EE15E1450629C6250200B05E0605091
:10282000200B02E05FEC19F06250020B14E06050E4
:10283000020B11E0010EE66EE66A000EE66EE66A35
:10284000E6687F0EE66EDCEC12F0146E060EE15EBA
:1028500014500F015F6B040E0001E76E6019E8AEC3
:1028600002D0E73402D0E750605D02E2A19439D093
:1028700060A636D0DF6A040EDF5C32E262A630D09A
:1028800063CF8DF000018D51780BE842E842E842B9
:102890008E6F62968DB506D08E51EA6A950FE96EFD
:1028A000000E05D08E51EA6A900FE96E000EEA2202
:1028B000EF708E5103E1A5EC19F010D0000EE66E1A
:1028C000E66A8D0EE66E000EE66E720EE66EE66A43
:1028D000DCEC12F0146E060EE15E1450DF2ACBD74A
:1028E000A194E552E552E7CFD9FF1200D9CFE6FF18
:1028F000E1CFD9FF020EE126FD0EDBA407D0E66A88
:10290000FE0EDBCFE6FFF7D9E552E552FD0EDBA266
:1029100008D0010EE66EFE0EDBCFE6FFECD9E552E5
:10292000E552FE0EDB50156A530F146E0F0E152282
:1029300014C0DEFF15C0DDFFDECFE9FFDDCFEAFF0B
:10294000FD0EDBCFEFFF020EE15C02E2E16AE55231
:10295000E16EE552E7CFD9FF1200D9CFE6FFE1CF14
:10296000D9FF020EE126FD0EDB500AE0FE0EEA6AF8
:10297000DB34FE0BEA36E96E710EE926000E09D053
:10298000FE0EEA6ADB34FE0BEA36E96E670EE926D4
:10299000000EEA22EECFDEFFEDCFDDFFD9CFE9FF5B
:1029A000DACFEAFFEE50ED1003E1F36AF46A44D0A7
:1029B000DECFE9FFDDCFEAFF020EE926000EEA22B4
:1029C000FB0EDBCFEEFFFC0EDBCFEDFFDECFE9FF32
:1029D000DDCFEAFFEE52FA0EDBCFEFFF400EDECF87
:1029E000E9FFDDCFEAFFE850EF16880EDECFE9FF02
:1029F000DDCFEAFFE850EF12FD0EDB500AE0FE0EDD
:102A0000EA6ADB34FE0BEA36E96E710EE926000E47
:102A100009D0FE0EEA6ADB34FE0BEA36E96E670E79
:102A2000E926000EEA22EF74DECF14F0DDCF15F0B8
:102A300014C0F3FF15C0F4FF020EE15C02E2E16A8C
:102A4000E552E16EE552E7CFD9FF1200D9CFE6FF9C
:102A5000E1CFD9FF020EE126FE0EDB5020E165C07A
:102A6000E9FF66C0EAFFEE52080EEF6E65C0E9FFAF
:102A700066C0EAFF020EE926000EEA22500EEE6E54
:102A8000020EED6E65C0E9FF66C0EAFF8C0EEF6EC8
:102A900071C0E9FF72C0EAFF840EEF6E3BD0FD0EFD
:102AA000DB50E824166EFE0EDB50040DF3501624A6
:102AB000040DF3CF14F0F4CF15F0000E1426020E1F
:102AC000152214C0DEFF15C0DDFF840EDECFE9FF46
:102AD000DDCFEAFFE850EF12FD0EDB50E824166E62
:102AE000FE0EDB50040DF3501624010F040DF3CF3E
:102AF00014F0F4CF15F0000E1426020E152214C0A7
:102B0000DEFF15C0DDFF840EDECFE9FFDDCFEAFF7B
:102B1000E850EF12020EE15C02E2E16AE552E16E7A
:102B2000E552E7CFD9FF1200D9CFE6FFE1CFD9FFB9
:102B300064A84ED0FE0EEA6ADB34FE0BEA36E96E7C
:102B4000710EE926000EEA22EE50EFCFEAFFE96EA1
:102B5000400EEE16EE6AEE6AEE6AFE0EEA6ADB34AC
:102B6000FE0BEA36E96E710EE926000EEA22EE50FF
:102B7000EFCFEAFFE96EEE7CFE0EEA6ADB34FE0B75
:102B8000EA36E96E710EE926000EEA22EF74400E75
:102B9000146EFE0EEA6ADB34FE0BEA36E96E710E45
:102BA000E926000EEA22EE50EFCFEAFFE96E14505C
:102BB000EF16FE0EEA6ADB34FE0BEA36E96E710EA2
:102BC000E926000EEA22EE50EFCFEAFFE96EEF7C35
:102BD000E552E7CFD9FF120000019C514DE1010EF3
:102BE0009C6F9D5149E1010E9D6F020E7C5D0DE1D0
:102BF00071C0E9FF72C0EAFFEE52EF6A71C0E9FFEF
:102C000072C0EAFFC80EEF6E12007C0535E18F6BD3
:102C100063C0E9FF64C0EAFFEE52080EEF6E63C0C6
:102C2000E9FF64C0EAFF020EE926000EEA22500E18
:102C3000EE6E020EED6E63C0E9FF64C0EAFF840E23
:102C4000EF6E010E8F6F65C0E9FF66C0EAFFEE52BE
:102C5000080EEF6E65C0E9FF66C0EAFF020EE926C6
:102C6000000EEA22500EEE6E020EED6E65C0E9FF18
:102C700066C0EAFF800EEF6E120000019E6B9F6B34
:102C8000020E7C5D18E165C0E9FF66C0EAFFEE5206
:102C9000080EEF6E65C0E9FF66C0EAFF020EE92686
:102CA000000EEA22580EEE6E020EED6E65C0E9FFD0
:102CB00066C0EAFF1DD080510201565D00018151BE
:102CC0000201575904E256C280F057C281F0CAD8B7
:102CD00071C0E9FF72C0EAFF020EE926000EEA2287
:102CE000580EEE6E020EED6E71C0E9FF72C0EAFF83
:102CF000C80EEF6E1200D9CFE6FFE1CFD9FF020E6A
:102D0000E126000EDE6E020EDD6EFD0EDB50E824C5
:102D1000166EFE0EDB50040DF3501624040DF4CF96
:102D200015F0D9CFE9FFDACFEAFFF350EE261550C0
:102D3000ED22DECFE9FFDDCFEAFFEF9EFD0EDB5097
:102D40000AE1FE0EEA6ADB34FE0BEA36E96E670E34
:102D5000E926000E09D0FE0EEA6ADB34FE0BEA36E5
:102D6000E96E710EE926000EEA22DECFEEFFDDCF1E
:102D7000EDFFDECFE9FFDDCFEAFFEF9CDECFE9FF1D
:102D8000DDCFEAFF040EE926000EEA22EF8C020EE8
:102D9000E15C02E2E16AE552E16EE552E7CFD9FF7C
:102DA0001200649800017FBF2BD084AF09D0020EBF
:102DB0007C6F9F5101E161DF00019D6B9C6B1200F4
:102DC00065C0E9FF66C0EAFFEE52080EEF6E65C00F
:102DD000E9FF66C0EAFF020EE926000EEA22500E65
:102DE000EE6E020EED6E65C0E9FF66C0EAFF8C0E66
:102DF000EF6E71C0E9FF72C0EAFF840EEF6E120041
:102E0000020150AF0DD00001010E7C6F9E5101E117
:102E100034DF00019D6B9C6B9B5123E1ECEF15F0BF
:102E20000001020E7C6F65C0E9FF66C0EAFFEE524A
:102E3000080EEF6E65C0E9FF66C0EAFF020EE926E4
:102E4000000EEA22500EEE6E020EED6E65C0E9FF36
:102E500066C0EAFF840EEF6E9D6B9C6B9B5101E197
:102E6000BBDE1200D9CFE6FFE1CFD9FFE652080E54
:102E7000DF6E0001805D000E81590AE280C0DFFF35
:102E80007B5102E1010E03D07B0502E1020E7B6F54
:102E9000DF50156AE850805D806F15508159816F51
:102EA00071C0E9FF72C0EAFFEE52DFCFEFFF580EAC
:102EB000896F020E8A6F7FB118D0DF502DE07DC080
:102EC000F6FF7EC0F7FF7D2B000E7E230800F55035
:102ED000E66E89C0E9FF8AC0EAFF892B000E8A23CB
:102EE000E552E750EF6EDF06E8D7DF5015E07DC012
:102EF000E9FF7EC0EAFF7D2B000E7E23EF50E66ED9
:102F000089C0E9FF8AC0EAFF892B000E8A23E552B7
:102F1000E750EF6EDF06E9D7E552E552E7CFD9FF7C
:102F20001200D9CFE6FFE1CFD9FF020EE12663C040
:102F3000E9FF64C0EAFFEE52EFCFDFFFDFCF14F00E
:102F400014500001855D000E865902E285C0DFFF46
:102F5000DF50146E156AE850855D856F15508659EF
:102F6000866F010EDB6ADF50F36E010EDBCFF4FFDC
:102F7000F350F45C16E2010EDB50EA6A580FE96E7A
:102F8000020EEA22EF50E66E82C0E9FF83C0EAFF3C
:102F9000822B000E8323E552E750EF6E010EDB2AF1
:102FA000E2D7000ED8808555000E865527E265C011
:102FB000E9FF66C0EAFFEE52080EEF6E65C0E9FF5A
:102FC00066C0EAFF020EE926000EEA22580EEE6EF7
:102FD000020EED6E63C0E9FF64C0EAFFEF50400BE4
:102FE00006E165C0E9FF66C0EAFFC80E05D065C00E
:102FF000E9FF66C0EAFF880EEF6E28D065C0E9FFE2
:1030000066C0EAFFEE52080EEF6E65C0E9FF66C0CB
:10301000EAFF020EE926000EEA22500EEE6E020EC4
:10302000ED6E65C0E9FF66C0EAFF840EEF6E875162
:10303000881107E005D088C0FAFF00018751F96EBA
:10304000FADF0001849F9B5101E1C6DD020EE15CC5
:1030500002E2E16AE552E16EE552E7CFD9FF1200E4
:10306000D9CFE6FFE1CFD9FFE65200017F8F040EF2
:10307000E66EE66AE66A540EE66E0F0EE66E46EC03
:103080001FF0146E050EE15E1450500EE66EE66AF7
:10309000E66A000EE66E020EE66E46EC1FF0146E57
:1030A000050EE15E1450648CDF6A050EDF5C10E2F1
:1030B000DF50EA6A900FE96E000EEA22EF6ADF50F5
:1030C000EA6A950FE96E000EEA22EF6ADF2AEDD771
:1030D000010EE66EE66AE66A620EE66E000EE66EC7
:1030E00046EC1FF0146E050EE15E1450649C000166
:1030F000080E716F020E726F000E636F020E646F26
:1031000063C065F0666F52C261F0615102E1100E5A
:1031100012D0010EE66EE66A610EE66E000EE66EF5
:10312000010EE66EE66ADCEC12F0146E060EE15E4D
:1031300014500001200E606FE552E552E7CFD9FF31
:103140001200800E0201505D58E10001C00E7F6F39
:1031500002015351030A2FE0010A09E0030A4BE17F
:103160000001840E7D6F3A0E7E6F120E3ED05251DA
:10317000F66EF76AD890F636F7361D0EF6263C0E38
:10318000F7220900F5CF7DF00A00F5CF7EF0020EA0
:103190000001F76A7D25F66E7E51F7220800F5CF13
:1031A00080F0030EF76A7D25F66E7E51F722080047
:1031B000F5CF81F01200030E525D1AE25251F66E05
:1031C000F76AD890F636F7361F0EF6263C0EF72231
:1031D0000900F5CF7DF00A00F5CF7EF07DC0F6FF47
:1031E0007EC0F7FF0800F5500001806F816B120070
:1031F00000017F6B120000017F6B1200D9CFE6FF48
:10320000E1CFD9FF020EE1260201586B596B5051F4
:103210001F0B020A11E0030A0CE0010A3CE1000165
:103220007F8F0201588100018B0535E1020158832F
:1032300032D000017F8F2FD000017F8F020154BF59
:103240000BD054510F0BE96EEA6AD890E936EA3692
:10325000670EE926000E0AD054510F0BE96EEA6A98
:10326000D890E936EA36710EE926000EEA22EECF52
:10327000DEFFEDCFDDFFDECFE9FFDDCFEAFFEF5070
:10328000800B09E0DECFE9FFDDCFEAFFEF50040B52
:1032900002E0010E586F00017FAF07D0580E7D6F1E
:1032A000020E7E6F7F81020E806F020EE15C02E2F1
:1032B000E16AE552E16EE552E7CFD9FF12000F0156
:1032C00053A115D063C0E9FF64C0EAFFEF50800846
:1032D0000DE171C0E9FF72C0EAFFEF50840806E11A
:1032E00063C0E9FF64C0EAFF8C0EEF6E5391629AEF
:1032F00012006084629864820001010E8C6F000EDF
:10330000E66EE66AE66EE66A750EE66EE66ADCEC86
:1033100012F0146E060EE15E1450120000018C6B68
:10332000000EE66EE66AE66EE66A740EE66EE66A21
:10333000DCEC12F0146E060EE15E145064926094A0
:1033400062A402D06294FCD71200D9CFE6FFE1CF8D
:10335000D9FFE652FD0E00018D1553E17E0E8D154D
:10336000E8407F0B040DF3CF63F0F4CF64F0000E60
:103370006327020E642363C065F064C066F0657560
:1033800063C0E9FF64C0EAFFEF503C0BE842E8424B
:103390000D0835E1DF6A080EDF5C23E263C0E9FF58
:1033A00064C0EAFF020EE926000EEA22EE50EFCFDB
:1033B000EAFFE96EEF50E66EDF50EA6A500FE96E01
:1033C000020EEA22E552E750EF6E63C0E9FF64C0E7
:1033D000EAFF020EE926000EEA22EE2AEF22DF2A99
:1033E000DAD763C0E9FF64C0EAFF020EE926000EE7
:1033F000EA22500EEE6E020EED6E0DD807D03AD8CE
:1034000005D0FD0E8D15040801E159D8E552E552AD
:10341000E7CFD9FF120000017B6B9B6B9E6B9F6B0C
:103420008F6B7C6B71C0E9FF72C0EAFFEF9E717514
:1034300071C0E9FF72C0EAFFEF9E717565C0E9FFD8
:1034400066C0EAFFEF9E7F6B806B816B846B856B40
:10345000866B8FD8000EE66EE66AE66EE66A030EAD
:10346000E66EE66ADCEC12F0146E060EE15E1450B5
:10347000D1EF16F0020E00017C5D02E191EF17F032
:103480007C6B8F511AE165C0E9FF66C0EAFFEE521E
:10349000080EEF6E65C0E9FF66C0EAFF020EE9267E
:1034A000000EEA22500EEE6E020EED6E65C0E9FFD0
:1034B00066C0EAFF8C0EEF6E12008F6B1200D9CF40
:1034C000E6FFE1CFD9FFE65271C0E9FF72C0EAFF23
:1034D000EF50400B01E0010EDF6E00017175080E28
:1034E000605D0BE152C25CFF0F015C5103E0000123
:1034F000100E02D00001040E606F7C0526E171C041
:10350000E9FF72C0EAFF020EE926000EEA22580E19
:10351000EE6E020EED6EA6DC020E00017B5D06E192
:1035200071C0E9FF72C0EAFF840E0DD0DF5006E1E2
:1035300071C0E9FF72C0EAFFC80E05D071C0E9FF93
:1035400072C0EAFF880EEF6E0FD084AF0CD08751A7
:10355000881107E005D088C0FAFF00018751F96E95
:10356000FADF0001849F7C6BE552E552E7CFD9FF7B
:10357000120002015051600BE842E842E842E84282
:10358000E842000901E0120051510C0A50E00B0A18
:103590003FE00C0A31E0010A22E00B0A1EE0020AB9
:1035A0001CE0030A18E0080A10E0010A0CE00F0A08
:1035B00008E0030A01E0120000017F8F080E606F2F
:1035C0001200A1EF18F030EF18F00001610E7D6FCE
:1035D000000E7E6F0CD0FEEF18F018EF1BF0545168
:1035E00000017D6F7E6B620E7D27000E7E237F8142
:1035F000010E806F7F8F120000017F8F02015451F6
:10360000EA6A620FE96E000EEA2252C2EFFF120070
:10361000000EE66EE66AE66EE66A020EE66EE66AA0
:10362000DCEC12F0146E060EE15E14501200120073
:10363000D9CFE6FFE1CFD9FF050EE1260201520501
:1036400010E150511F0B00090CE100017F8F030EA8
:103650000201515D04E10001010E8B6F02D00001F7
:103660008B6B0201525101E011D150511F0B020826
:1036700001E00CD154510F0B000901E107D1545165
:103680000F0B040801E202D1200E0001605D01E091
:10369000FDD07F8F020154BF16D054510F0BE96E3D
:1036A000EA6AD890E936EA36670EE926000EEA2281
:1036B000EECFDEFFEDCFDDFF54510F0BEA6A950F21
:1036C000E96E000E15D054510F0BE96EEA6AD890DE
:1036D000E936EA36710EE926000EEA22EECFDEFF69
:1036E000EDCFDDFF54510F0BEA6A900FE96E000E2B
:1036F000EA22020EEFCFDBFFD950020FE96EDACFDC
:10370000EAFFEF50010B03E1000EDF9401D0DF84EC
:1037100054BF0BD054510F0BE96EEA6AD890E936CA
:10372000EA36670EE926000E0AD054510F0BE96EF7
:10373000EA6AD890E936EA36710EE926000EEA22E6
:10374000DECFEEFFDDCFEDFF030E515D20E1DECFDA
:10375000E9FFDDCFEAFFEF50800B11E054BF07D047
:1037600054510F0BEA6A950FE96E000E06D05451C2
:103770000F0BEA6A900FE96E000EEA22EF82840EC8
:10378000DECFE9FFDDCFEAFFE850EF127FD0DF7434
:10379000DECFE9FFDDCFEAFFEF50800B1BE0DECF8D
:1037A000E9FFDDCFEAFFEF9EDECFE9FFDDCFEAFFE5
:1037B000EF8C020EE66EE66ADECFE6FFDDCFE6FFB7
:1037C000050EE66EE66ADCEC12F0146E060EE15EA3
:1037D000145005D0DECFE9FFDDCFEAFFEF8CDF74B8
:1037E000D950020FE96EDACFEAFFEF50020B07E182
:1037F000DECFE9FFDDCFEAFFEF50800B2BE00201C7
:1038000054BF07D054510F0BEA6A950FE96E000EB2
:1038100006D054510F0BEA6A900FE96E000EEA22AF
:10382000EF923B0E146EDECFE9FFDDCFEAFFE850EA
:10383000EF16020EE66EE66ADECFE6FFDDCFE6FFAC
:10384000050EE66EE66ADCEC12F0146E060EE15E22
:10385000145007D03B0EDECFE9FFDDCFEAFFE85082
:10386000EF16020154510F0B156A530F146E0F0E11
:103870001522030E14C0DBFF040E15C0DBFF030E80
:10388000DBCFE9FF040EDBCFEAFFEF90050EE15C32
:1038900002E2E16AE552E16EE552E7CFD9FF12009C
:1038A000D9CFE6FFE1CFD9FFFD0EDB50A96EA66AA6
:1038B000A680A850E552E7CFD9FF1200D9CFE6FF86
:1038C000E1CFD9FFE652DF6AA6B20ED0FD0EDB5083
:1038D000A96EFC0EDB50A86E040EA66E550EA76EE8
:1038E000AA0EA76EA68202D0010EDF6EA6B2FED788
:1038F000DF50E552E552E7CFD9FF1200D9CFE6FFFE
:10390000E1CFD9FF050EE126010EDF6EDB6AF90E6D
:10391000DBCFE9FFFA0EDBCFEAFFEF6A020EDB6ACC
:10392000FC0EDB50F36E020EDBCFF4FFF350F45CC1
:103930005EE2010EDB6A020EDB50E76EFD0EDBCFAE
:1039400014F0FE0EDBCF15F0E7501426000E152202
:1039500014C0E6FF15C0E6FFA3DFE552E552E76EAF
:10396000040EE7CFDBFF020EDB28E76E030EE7CF86
:10397000DBFFFC0EDB50F36E030EDBCFF4FFF350E6
:10398000F45C1EE2030EDB50E76EFD0EDBCF14F09D
:10399000FE0EDBCF15F0E7501426000E152214C0E2
:1039A000E6FF15C0E6FF7CDFE552E552F36E040E3C
:1039B000DB50F35C02E1010EDB2A030EDB2AD9D7D0
:1039C000FB0EDB04F36E010EDBCFF4FFF350F45C6F
:1039D0000BE3F90EDBCFE9FFFA0EDBCFEAFF040EB3
:1039E000DBCFEFFFDF6A03D0020EDB2A99D7DF506F
:1039F000146E050EE15C02E2E16AE552E16E1450DC
:103A0000E552E7CFD9FF1200D9CFE6FFE1CFD9FFCA
:103A1000020EE126DF6A010EDB6AFB0EDB50F36E5D
:103A2000010EDBCFF4FFF350F45C1FE2FC0EDBCFA2
:103A3000E6FF010EDB50E76EFD0EDBCF14F0FE0E4D
:103A4000DBCF15F0E7501426000E152214C0E6FF58
:103A500015C0E6FF33DFE552E552E552000902E00A
:103A6000010EDF6E010EDB2AD8D7DF50146E020E76
:103A7000E15C02E2E16AE552E16E1450E552E7CF03
:043A8000D9FF120058
:0C3A84001201000200000008EA225900B4
:103A900001000102000109028200040100C0320994
:103AA0000400000103010200092111010001223478
:103AB000000705810304000109040100020300005E
:103AC0000009211101000122310007058203400095
:103AD000010705020340000109040200020301017D
:103AE00000092111010001223F000705830308009E
:103AF0000107050303080001090403000203000095
:103B000000092111010001221D0007058403400066
:103B1000010705040340000105010902A101090193
:103B2000A100050919012903150025019503750157
:103B300081029501750581010501093009310938B6
:103B40001581257F750895038106C0C0050109050B
:103B5000A10115002501350045017501950C0509E8
:103B60001901290C810295048101050109300931EF
:103B700026FF0046FF00750895028102C005010975
:103B800006A101050719E029E71500250175019532
:103B900008810295017508810395057501050819CD
:103BA0000129059102950175039103950675081584
:103BB0000025E70507190029E78100C00600FF0975
:103BC00001A10119012940150026FF007508954043
:103BD0008100190129409100C00403090426034211
:103BE00000690074002000540072006100640065E8
:103BF0000020004F006E00650020004C005400447F
:103C0000002E001A03520045005600490056004598
:103C10000020004D006900630072006F00963AD9E1
:053C20003BDD3B033C0D
:0A3C2600020150511F0B010801E0DC
:103C30001200060E515D4EE15351230A4BE0010A7A
:103C400021E0030A47E15451030A15E0010A0EE09E
:103C5000030A07E0010A3EE10001A80E7D6F3A0E5B
:103C60000ED00001C10E7D6F3A0E09D00001E10EA9
:103C70007D6F3A0E04D00001010E7D6F3B0E7E6F0A
:103C8000090E24D05451030A1BE0010A12E0030A72
:103C900009E0010A1FE10001180E7D6F3B0E7E6FE7
:103CA000340E14D000014C0E7D6F3B0E7E6F310E32
:103CB0000DD000017D0E7D6F3B0E7E6F3F0E06D056
:103CC0000001BC0E7D6F3B0E7E6F1D0E806F816B01
:103CD000C00E7F6F02015051600BE842E842E8429B
:103CE000E842E842010801E0120051510B0A26E0C7
:103CF000080A19E0090A11E0080A05E00B0A23E0A6
:103D0000080A21E012000001E70E7D6F000E7E6FB1
:103D1000010E806F816BC10E0FD00001800E7F6F8E
:103D200053C2E7F012000001E80E7D6F000E7E6FB7
:103D3000010E806F816B810E7F6F12000001800E7B
:083D40007F6F52C2E8F012008F
:083D4800006A0EAEADEF1EF0A3
:103D50000D6C0E1EE86A0E22001E09AEB5EF1EF0B5
:103D6000086C091EE86A0922001E6EEC1FF009BEED
:103D7000C5EF1EF000AE000C086C091EE86A0922AF
:103D8000046C051EE86A0522000C00BEBCEF1EF0A4
:103D90000188FF0C09C013F008C012F008500D0292
:103DA000F4CF07F0F3CF06F009500E02F4CF09F07C
:103DB000F3CF08F00D02F3500726F4500822E86A0A
:103DC000092212500E02F3500726F4500822E86A26
:103DD00009220EAEF0EF1EF01250085E1350095A81
:0E3DE00013AE000C0D50085E0E50095A000C78
:023DEE001E0EA7
:103DF000F66E100EF76E000EF86E00010900F55019
:103E0000E26F0900F550E36F03E1E26701D03DD0B6
:103E10000900F550DD6F0900F550DE6F0900F5501F
:103E2000DF6F09000900F550E96E0900F550EA6EF0
:103E3000090009000900F550E06F0900F550E16F35
:103E400009000900F6CFE4F0F7CFE5F0F8CFE6F08F
:103E5000DDC0F6FFDEC0F7FFDFC0F8FF0001E05372
:103E600002E1E15307E00900F550EE6EE007F8E2E9
:103E7000E107F9D7E4C0F6FFE5C0F7FFE6C0F8FFB9
:0C3E80000001E207000EE35BBFD7120058
:043E8C00FE0EE3CF74
:103E9000E9FFFF0EE3CFEAFFE9CFF3FFEACFF4FF3C
:103EA000FB0EE35003E1FC0EE35009E0FB0EE306DA
:103EB00002E2FC0EE306FD0EE350EE6EF1D71200B7
:103EC000FE0EE3CFE9FFFF0EE3CFEAFFF36AF46AE9
:0C3ED000EE5203E0F34AF42AFBD7120084
:043EDC00056A046A05
:103EE000100EE76ED89008360936043605360D50A8
:103EF000045C0E50055805E30D50045E0E50055A43
:083F0000082AE72EF0D7120099
:083F0800000EF36E00EE00F064
:103F1000030E01D81200EA6002D0EE6AFCD7F3501B
:083F2000E9601200EE6AFCD713
:083F280011EE00F021EE00F0A3
:103F3000F86A019CF7EC1EF003EC08F02EEC08F098
:043F4000FBD7120099
:0C3F4400303031000000000000000000E0
:103F50000000000000000000000000000000000061
:103F60000000000000000000000000000000000051
:103F70000000000000000000000000000000000041
:013F80000040
:020000040030CA
:0100000000FF
:0100010032CC
:0100020001FC
:010003001EDE
:0100050000FA
:010006008178
:0100080003F4
:01000900C036
:01000A0003F2
:01000B00E014
:01000C0003F0
:01000D0040B2
:00000001FF
